:020000040000FA
:10000000400300200D03000015030000170300004B
:10001000190300001B0300001D0300000000000086
:100020000000000000000000000000001F030000AE
:10003000210300000000000023030000AD0C0000BD
:100040009D0400000106000069070000D1080000BF
:10005000390A0000310300003303000035030000BB
:1000600037030000390300003B0300003D0300009C
:100070003F0300004103000043030000450300006C
:1000800047030000490300004B0300004D0300003C
:100090004F0300005103000053030000550300000C
:1000A00057030000590300005B0300005D030000DC
:1000B0005F03000061030000A50B00006503000062
:1000C00067030000690300006B0300006D0300007C
:1000D0006F0300007103000073030000750300004C
:1000E0007703000079030000000000007B0300009C
:1000F0007D0300007F0300008103000083030000F4
:100100008503000087030000890300008B030000C3
:1001100000000000000000008D0300008F030000BD
:100120009103000093030000950300009703000073
:10013000990300009B0300009D0300009F03000043
:1001400000000000000000000000000000000000AF
:10015000A1030000A3030000A5030000A703000003
:10016000000000000000000000000000000000008F
:10017000000000000000000000000000000000007F
:10018000000000000000000000000000000000006F
:10019000000000000000000000000000000000005F
:1001A000000000000000000000000000000000004F
:1001B000A9030000AB030000AD030000AF03000083
:1001C000B1030000B3030000B5030000B703000053
:1001D000B9030000BB030000BD030000BF03000023
:1001E000C1030000C3030000C503000000000000BD
:1001F00000000000C7030000C9030000CB0300009B
:10020000CD030000CF03000000000000000000004C
:10021000D1030000D3030000D5030000D703000082
:10022000D9030000DB030000DD030000DF03000052
:10023000E1030000E3030000E5030000E703000022
:10024000E9030000EB030000ED030000EF030000F2
:10025000F1030000F3030000F5030000F7030000C2
:10026000F9030000FB030000FD03000000F002F8AA
:1002700000F03CF80AA090E8000C82448344AAF104
:100280000107DA4501D100F031F8AFF2090EBAE802
:100290000F0013F0010F18BFFB1A43F001031847BA
:1002A0002024000040240000103A24BF78C878C100
:1002B000FAD8520724BF30C830C144BF04680C606C
:1002C000704700000023002400250026103A28BFB4
:1002D00078C1FBD8520728BF30C148BF0B607047B8
:1002E0001FB502F0E0F91FBD10B510BD00F09BF87E
:1002F0001146FFF7F5FF02F005F800F0B9F803B476
:10030000FFF7F2FF03BC00F0C1F800003F48804750
:100310003F480047FEE7FEE7FEE7FEE7FEE7FEE7B1
:10032000FEE7FEE7FEE7FEE7FEE7FEE7FEE7FEE7A5
:10033000FEE7FEE7FEE7FEE7FEE7FEE7FEE7FEE795
:10034000FEE7FEE7FEE7FEE7FEE7FEE7FEE7FEE785
:10035000FEE7FEE7FEE7FEE7FEE7FEE7FEE7FEE775
:10036000FEE7FEE7FEE7FEE7FEE7FEE7FEE7FEE765
:10037000FEE7FEE7FEE7FEE7FEE7FEE7FEE7FEE755
:10038000FEE7FEE7FEE7FEE7FEE7FEE7FEE7FEE745
:10039000FEE7FEE7FEE7FEE7FEE7FEE7FEE7FEE735
:1003A000FEE7FEE7FEE7FEE7FEE7FEE7FEE7FEE725
:1003B000FEE7FEE7FEE7FEE7FEE7FEE7FEE7FEE715
:1003C000FEE7FEE7FEE7FEE7FEE7FEE7FEE7FEE705
:1003D000FEE7FEE7FEE7FEE7FEE7FEE7FEE7FEE7F5
:1003E000FEE7FEE7FEE7FEE7FEE7FEE7FEE7FEE7E5
:1003F000FEE7FEE7FEE7FEE7FEE7FEE7FEE70000BA
:1004000004480549034A054B70470000110D0000E0
:100410006D02000040010020400300204001002048
:10042000704770477047754600F02CF8AE460500DF
:100430006946534620F00700854618B020B5FFF7FF
:10044000DFFFBDE820404FF000064FF000074FF0FF
:1004500000084FF0000BAC46ACE8C009ACE8C0099E
:10046000ACE8C009ACE8C00921F007018D4670472F
:1004700010B50446AFF300802046BDE81040FFF7FA
:100480003EBF0000004870470800002001491820C6
:10049000ABBEFEE7260002007047000080B582B0C8
:1004A00008208DF8070044F21840C4F200000068EC
:1004B000C00720B1FFE700208DF8070076E044F286
:1004C0001840C4F20000006800F002010020B0EB08
:1004D000510F04D0FFE701208DF8070065E044F2DA
:1004E0001840C4F20000006800F004010020B0EBE6
:1004F000910F04D0FFE702208DF8070054E044F28A
:100500001840C4F20000006800F008010020B0EBC1
:10051000D10F04D0FFE703208DF8070043E044F239
:100520001840C4F20000006800F010010020B0EB99
:10053000111F04D0FFE704208DF8070032E044F2D9
:100540001840C4F20000006800F020010020B0EB69
:10055000511F04D0FFE705208DF8070021E044F289
:100560001840C4F20000006800F040010020B0EB29
:10057000911F04D0FFE706208DF8070010E044F239
:100580001840C4F200000068C1B20020B0EBD11FD7
:1005900004D0FFE707208DF8070000E0FFE7FFE742
:1005A000FFE7FFE7FFE7FFE7FFE7FFE744F21C4154
:1005B000C4F2000108689DF8073001229A401043F8
:1005C00008609DF80700082816D0FFE79DF807107F
:1005D00040F26800C2F2000050F8210050B1FFE77D
:1005E0009DF8071040F26800C2F2000050F82100A8
:1005F000804700E0FFE700E0FFE702B080BD0000B9
:1006000080B582B008208DF8070045F21840C4F28A
:1006100000000068C00720B1FFE700208DF8070048
:1006200076E045F21840C4F20000006800F00201D4
:100630000020B0EB510F04D0FFE701208DF8070038
:1006400065E045F21840C4F20000006800F00401C3
:100650000020B0EB910F04D0FFE702208DF80700D7
:1006600054E045F21840C4F20000006800F00801B0
:100670000020B0EBD10F04D0FFE703208DF8070076
:1006800043E045F21840C4F20000006800F0100199
:100690000020B0EB111F04D0FFE704208DF8070005
:1006A00032E045F21840C4F20000006800F020017A
:1006B0000020B0EB511F04D0FFE705208DF80700A4
:1006C00021E045F21840C4F20000006800F040014B
:1006D0000020B0EB911F04D0FFE706208DF8070043
:1006E00010E045F21840C4F200000068C1B20020DA
:1006F000B0EBD11F04D0FFE707208DF8070000E022
:10070000FFE7FFE7FFE7FFE7FFE7FFE7FFE7FFE7B9
:1007100045F21C41C4F2000108689DF8073001222F
:100720009A40104308609DF80700082818D0FFE79A
:100730009DF8071040F26800C2F2000000EB810053
:10074000006A58B1FFE79DF8071040F26800C2F256
:10075000000000EB8100006A804700E0FFE700E056
:10076000FFE702B080BD000080B582B008208DF8A0
:10077000070046F21840C4F200000068C00720B12C
:10078000FFE700208DF8070076E046F21840C4F23B
:100790000000006800F002010020B0EB510F04D00F
:1007A000FFE701208DF8070065E046F21840C4F22B
:1007B0000000006800F004010020B0EB910F04D0AD
:1007C000FFE702208DF8070054E046F21840C4F21B
:1007D0000000006800F008010020B0EBD10F04D049
:1007E000FFE703208DF8070043E046F21840C4F20B
:1007F0000000006800F010010020B0EB111F04D0D1
:10080000FFE704208DF8070032E046F21840C4F2FA
:100810000000006800F020010020B0EB511F04D060
:10082000FFE705208DF8070021E046F21840C4F2EA
:100830000000006800F040010020B0EB911F04D0E0
:10084000FFE706208DF8070010E046F21840C4F2DA
:1008500000000068C1B20020B0EBD11F04D0FFE758
:1008600007208DF8070000E0FFE7FFE7FFE7FFE75D
:10087000FFE7FFE7FFE7FFE746F21C41C4F2000194
:1008800008689DF8073001229A40104308609DF8DF
:100890000700082818D0FFE79DF8071040F268000D
:1008A000C2F2000000EB8100006C58B1FFE79DF838
:1008B000071040F26800C2F2000000EB8100006CFB
:1008C000804700E0FFE700E0FFE702B080BD0000E6
:1008D00080B582B008208DF8070047F21840C4F2B6
:1008E00000000068C00720B1FFE700208DF8070076
:1008F00076E047F21840C4F20000006800F0020100
:100900000020B0EB510F04D0FFE701208DF8070065
:1009100065E047F21840C4F20000006800F00401EE
:100920000020B0EB910F04D0FFE702208DF8070004
:1009300054E047F21840C4F20000006800F00801DB
:100940000020B0EBD10F04D0FFE703208DF80700A3
:1009500043E047F21840C4F20000006800F01001C4
:100960000020B0EB111F04D0FFE704208DF8070032
:1009700032E047F21840C4F20000006800F02001A5
:100980000020B0EB511F04D0FFE705208DF80700D1
:1009900021E047F21840C4F20000006800F0400176
:1009A0000020B0EB911F04D0FFE706208DF8070070
:1009B00010E047F21840C4F200000068C1B2002005
:1009C000B0EBD11F04D0FFE707208DF8070000E04F
:1009D000FFE7FFE7FFE7FFE7FFE7FFE7FFE7FFE7E7
:1009E00047F21C41C4F2000108689DF8073001225B
:1009F0009A40104308609DF80700082818D0FFE7C8
:100A00009DF8071040F26800C2F2000000EB810080
:100A1000006E58B1FFE79DF8071040F26800C2F27F
:100A2000000000EB8100006E804700E0FFE700E07F
:100A3000FFE702B080BD000080B582B008208DF8CD
:100A4000070044F21840C4F202000068C00720B159
:100A5000FFE700208DF8070076E044F21840C4F26A
:100A60000200006800F002010020B0EB510F04D03A
:100A7000FFE701208DF8070065E044F21840C4F25A
:100A80000200006800F004010020B0EB910F04D0D8
:100A9000FFE702208DF8070054E044F21840C4F24A
:100AA0000200006800F008010020B0EBD10F04D074
:100AB000FFE703208DF8070043E044F21840C4F23A
:100AC0000200006800F010010020B0EB111F04D0FC
:100AD000FFE704208DF8070032E044F21840C4F22A
:100AE0000200006800F020010020B0EB511F04D08C
:100AF000FFE705208DF8070021E044F21840C4F21A
:100B00000200006800F040010020B0EB911F04D00B
:100B1000FFE706208DF8070010E044F21840C4F209
:100B200002000068C1B20020B0EBD11F04D0FFE783
:100B300007208DF8070000E0FFE7FFE7FFE7FFE78A
:100B4000FFE7FFE7FFE7FFE744F21C41C4F20201C1
:100B500008689DF8073001229A40104308609DF80C
:100B6000070008281AD0FFE79DF8071040F2680038
:100B7000C2F2000000EB8100D0F8800060B1FFE716
:100B80009DF8071040F26800C2F2000000EB8100FF
:100B9000D0F88000804700E0FFE700E0FFE702B008
:100BA00080BD000080B582B008208DF8070045F2B6
:100BB0001840C4F202000068C00720B1FFE700201F
:100BC0008DF8070044E045F21840C4F202000068C6
:100BD00000F002010020B0EB510F04D0FFE701202C
:100BE0008DF8070033E045F21840C4F202000068B7
:100BF00000F004010020B0EB910F04D0FFE70220C9
:100C00008DF8070022E045F21840C4F202000068A7
:100C100000F008010020B0EBD10F04D0FFE7032063
:100C20008DF8070011E045F21840C4F20200006898
:100C300000F010010020B0EB111F04D0FFE70420EA
:100C40008DF8070000E0FFE7FFE7FFE7FFE7FFE7BA
:100C500045F21C41C4F2020108689DF807300122E8
:100C60009A40104308609DF8070008281AD0FFE753
:100C70009DF8071040F26800C2F2000000EB81000E
:100C8000D0F8A00060B1FFE79DF8071040F26800BF
:100C9000C2F2000000EB8100D0F8A000804700E025
:100CA000FFE700E0FFE702B080BD000080B540F242
:100CB0003810C2F200000078012828D1FFE740F286
:100CC0002C10C2F20000006808B3FFE740F22C10BD
:100CD000C2F2000000684068C8B1FFE74EF21001A0
:100CE000CEF20001086820F00100086040F22C10EC
:100CF000C2F200000068406840B1FFE740F22C10EB
:100D0000C2F20000006840688047FFE7FFE780BD4F
:100D100081B04EF68851CEF20001086840F47000B0
:100D200008604EF27001C4F20F0142F61000C0F2EA
:100D3000807008604EF26002C4F20F0243F6D120C8
:100D4000C0F28E70106042F64250C0F29E101060E9
:100D500042F60000C0F28010086000200090FFE71B
:100D60000098C0087C2805D8FFE7FFE7009801300D
:100D70000090F5E74EF26001C4F20F0140F64250D8
:100D8000C0F29E1008604EF27001C4F20F0140F6EE
:100D90000000C0F28010086000200090FFE700987B
:100DA000C0087C2805D8FFE7FFE7009801300090D5
:100DB000F5E74EF26001C4F20F0140F64250C0F276
:100DC000DE100860FFE74EF25000C4F20F0000682A
:100DD00000F04000402801D0FFE7F4E74EF2600148
:100DE000C4F20F0140F24250C0F2DE1008604EF231
:100DF0007001C4F20F014FF0C07008600020009035
:100E0000FFE7009842F20F71884205D8FFE7FFE73D
:100E1000009801300090F4E701B0704780B582B0CF
:100E200000208DF807008DF806008DF805008DF87C
:100E300004000520012101F0D7F98DF805009DF887
:100E4000050020B1FFE701208DF80700FFE705202E
:100E5000032101F0C9F98DF805009DF8050020B1C6
:100E6000FFE701208DF80700FFE70520022101F0D0
:100E7000BBF98DF805009DF8050020B1FFE70120C2
:100E80008DF80700FFE740F20000C2F2000000F01A
:100E9000FFF88DF806009DF8060020B1FFE701205D
:100EA0008DF80700FFE740F23010C2F2000001F0B9
:100EB000EDFA8DF804009DF8040020B1FFE7012051
:100EC0008DF80700FFE741F28100C0F2000001F059
:100ED000BFFB8DF804009DF8040020B1FFE701205E
:100EE0008DF80700FFE79DF8070002B080BD000005
:100EF00080B584B0FFE700208DF80F0040F20000BD
:100F0000C2F200000DF10F0100F002F99DF80F0090
:100F100001281ED1FFE740F22910C2F2000000783C
:100F2000042807D1FFE740F22911C2F20001002096
:100F3000087007E040F22911C2F200010878013080
:100F40000870FFE740F22811C2F20001012008708A
:100F500000E0FFE740F22810C2F2000000780146EE
:100F6000029103281DD80299DFE801F00203061A56
:100F70001EE000F01FF81BE005200190012101F0A8
:100F800069F90198032101F065F90198022101F046
:100F900061F940F22811C2F200010020087007E058
:100FA000FFE740F22811C2F2000100200870FFE7BD
:100FB000A1E7000080B586B040F22910C2F200001F
:100FC00000780146059105284BD80599DFE801F026
:100FD00003111A28364805200490012101F03AF93E
:100FE0000498032101F036F90498022101F032F946
:100FF0003EE00520012101F059F94FF47A7001F02B
:10100000C1F935E005200390012101F023F903988F
:10101000032101F04BF94FF47A7001F0B3F927E0A6
:1010200005200290032101F015F90298022101F038
:101030003DF94FF47A7001F0A5F919E0052001900F
:10104000012101F033F90198032101F02FF90198F2
:10105000022101F02BF94FF47A7001F093F907E0C7
:10106000FFE740F22911C2F2000100200870FFE7FB
:1010700040F22811C2F200010020087006B080BDC5
:1010800040F22811C2F200010220087070470000EF
:1010900080B584B0039000208DF80B00039878B3DE
:1010A000FFE7039800788DF80400039840788DF8E6
:1010B00005000398807801460091022805D3FFE7D8
:1010C00000980238022806D309E00398807803309C
:1010D0008DF8060007E000208DF8060003E00120EF
:1010E0008DF80B00FFE701A800F0B0F840F23010D7
:1010F000C2F2000001F0CAF903990020C87003E0B1
:1011000002208DF80B00FFE79DF80B0004B080BDB6
:1011100080B584B00390029100208DF807000398F9
:10112000002844D0FFE70298002840D0FFE703984A
:10113000C078002836D1FFE70399087849780DF187
:10114000060200F03DF803988078014600910328DC
:1011500023D80099DFE801F0021302139DF806007E
:10116000B0FA80F0400902990870029800780128CE
:1011700004D1FFE7C82001F0D1F9FFE711E09DF8A5
:1011800006000299087002980078012804D1FFE750
:10119000C82001F0C3F9FFE703E001208DF8070044
:1011A000FFE703E003208DF80700FFE703E00220DC
:1011B0008DF80700FFE79DF8070004B080BD000030
:1011C00080B584B08DF80F008DF80E1002920020CB
:1011D0008DF80700029880B3FFE79DF80F009DF897
:1011E0000E1001F0A5F88DF807009DF8070010BB60
:1011F000FFE79DF80F00032808DCFFE79DF80F10BC
:101200004FF0402000EB0130009008E09DF80F10F7
:101210000020C4F2020000EB01300090FFE70098CC
:10122000D0F8FC039DF80E1001228A401040C840FF
:101230000299087000E0FFE703E005208DF8070041
:10124000FFE79DF8070004B080BD000080B5DCB06A
:101250005B9000208DF86B015B98002800F0F88609
:10126000FFE75B990878497801F062F88DF86B0127
:101270009DF86B01002840F0E686FFE75B98007858
:101280008DF86A015B9840788DF869014EF208612B
:10129000C4F20F0108689DF86A3101229A40104398
:1012A00008605B98807801465991052800F2DB853B
:1012B0005999DFE811F00600EC00D2017E029C0390
:1012C000BA049DF86A01032808DCFFE79DF86A115B
:1012D0004FF0402000EB0130589008E09DF86A1173
:1012E0000020C4F2020000EB01305890FFE758984C
:1012F000D0F81C059DF869210121914008435790C1
:101300009DF86A01032808DCFFE79DF86A114FF099
:10131000402000EB0130569008E09DF86A11002053
:10132000C4F2020000EB01305690FFE7579856993F
:10133000C1F81C059DF86A01032808DCFFE79DF849
:101340006A114FF0402000EB0130559008E09DF805
:101350006A110020C4F2020000EB01305590FFE753
:101360005598D0F828059DF86921012191408843BE
:1013700054909DF86A01032808DCFFE79DF86A1184
:101380004FF0402000EB0130539008E09DF86A11C7
:101390000020C4F2020000EB01305390FFE75498A4
:1013A0005399C1F828059DF86A01032808DCFFE776
:1013B0009DF86A114FF0402000EB0130529008E098
:1013C0009DF86A110020C4F2020000EB0130529037
:1013D000FFE75298D0F820049DF86921012191403F
:1013E000884351909DF86A01032808DCFFE79DF8C7
:1013F0006A114FF0402000EB0130509008E09DF85A
:101400006A110020C4F2020000EB01305090FFE7A7
:1014100051985099C1F820049DF86A01032808DC0E
:10142000FFE79DF86A114FF0402000EB01304F902C
:1014300008E09DF86A110020C4F2020000EB0130C0
:101440004F90FFE74F98D0F800049DF869210121E3
:10145000914088434E909DF86A01032808DCFFE71D
:101460009DF86A114FF0402000EB01304D9008E0EC
:101470009DF86A110020C4F2020000EB01304D908B
:10148000FFE74E984D99C1F8000400F0F0BC9DF8BC
:101490006A01032808DCFFE79DF86A114FF040203D
:1014A00000EB01304C9008E09DF86A110020C4F276
:1014B000020000EB01304C90FFE74C98D0F81C057F
:1014C0009DF869210121914008434B909DF86A01E4
:1014D000032808DCFFE79DF86A114FF0402000EB7D
:1014E00001304A9008E09DF86A110020C4F2020021
:1014F00000EB01304A90FFE74B984A99C1F81C0570
:101500009DF86A01032808DCFFE79DF86A114FF097
:10151000402000EB0130499008E09DF86A1100205E
:10152000C4F2020000EB01304990FFE74998D0F87F
:1015300028059DF8692101219140884348909DF834
:101540006A01032808DCFFE79DF86A114FF040208C
:1015500000EB0130479008E09DF86A110020C4F2CA
:10156000020000EB01304790FFE748984799C1F827
:1015700028059DF86A01032808DCFFE79DF86A1139
:101580004FF0402000EB0130469008E09DF86A11D2
:101590000020C4F2020000EB01304690FFE74698BD
:1015A000D0F820049DF8692101219140884345909D
:1015B0009DF86A01032808DCFFE79DF86A114FF0E7
:1015C000402000EB0130449008E09DF86A110020B3
:1015D000C4F2020000EB01304490FFE745984499C3
:1015E000C1F820049DF86A01032808DCFFE79DF894
:1015F0006A114FF0402000EB0130439008E09DF865
:101600006A110020C4F2020000EB01304390FFE7B2
:101610004398D0F800049DF86921012191400843C6
:1016200042909DF86A01032808DCFFE79DF86A11E3
:101630004FF0402000EB0130419008E09DF86A1126
:101640000020C4F2020000EB01304190FFE7429815
:101650004199C1F8000400F00ABC9DF86A01032812
:1016600008DCFFE79DF86A114FF0402000EB0130E5
:10167000409008E09DF86A110020C4F2020000EBDF
:1016800001304090FFE74098D0F800049DF86921B0
:101690000121914088433F909DF86A01032808DCAE
:1016A000FFE79DF86A114FF0402000EB01303E90BB
:1016B00008E09DF86A110020C4F2020000EB01303E
:1016C0003E90FFE73F983E99C1F800049DF86A01FB
:1016D000032808DCFFE79DF86A114FF0402000EB7B
:1016E00001303D9008E09DF86A110020C4F202002C
:1016F00000EB01303D90FFE73D98D0F81C059DF8C8
:1017000069210121914088433C909DF86A0103289A
:1017100008DCFFE79DF86A114FF0402000EB013034
:101720003B9008E09DF86A110020C4F2020000EB33
:1017300001303B90FFE73C983B99C1F81C059DF8B0
:101740006A01032808DCFFE79DF86A114FF040208A
:1017500000EB01303A9008E09DF86A110020C4F2D5
:10176000020000EB01303A90FFE73A98D0F82805E4
:101770009DF8692101219140084339909DF86A0143
:10178000032808DCFFE79DF86A114FF0402000EBCA
:101790000130389008E09DF86A110020C4F2020080
:1017A00000EB01303890FFE739983899C1F82805E7
:1017B000FFE79DF86A01032808DCFFE79DF86A113E
:1017C0004FF0402000EB0130379008E09DF86A119F
:1017D0000020C4F2020000EB01303790FFE7379899
:1017E000D0F81C059DF869210121914008433690ED
:1017F0009DF86A01032808DCFFE79DF86A114FF0A5
:10180000402000EB0130359008E09DF86A1100207F
:10181000C4F2020000EB01303590FFE736983599AD
:10182000C1F81C059DF86A01032808DCFFE79DF854
:101830006A114FF0402000EB0130349008E09DF831
:101840006A110020C4F2020000EB01303490FFE77F
:101850003498D0F828059DF86921012191408843EA
:1018600033909DF86A01032808DCFFE79DF86A11B0
:101870004FF0402000EB0130329008E09DF86A11F3
:101880000020C4F2020000EB01303290FFE73398F1
:101890003299C1F828059DF86A01032808DCFFE7A2
:1018A0009DF86A114FF0402000EB0130319008E0C4
:1018B0009DF86A110020C4F2020000EB0130319063
:1018C000FFE73198D0F820049DF86921012191406B
:1018D000884330909DF86A01032808DCFFE79DF8F3
:1018E0006A114FF0402000EB01302F9008E09DF886
:1018F0006A110020C4F2020000EB01302F90FFE7D4
:1019000030982F99C1F820049DF86A01032808DC5B
:10191000FFE79DF86A114FF0402000EB01302E9058
:1019200008E09DF86A110020C4F2020000EB0130CB
:101930002E90FFE72E98D0F800049DF86921012130
:10194000914088432D909DF86A01032808DCFFE749
:101950009DF86A114FF0402000EB01302C9008E018
:101960009DF86A110020C4F2020000EB01302C90B7
:10197000FFE72D982C99C1F800049DF86A0103280F
:1019800008DCFFE79DF86A114FF0402000EB0130C2
:101990002B9008E09DF86A110020C4F2020000EBD1
:1019A00001302B90FFE72B98D0F810059DF86921A6
:1019B0000121914008432A909DF86A01032808DC20
:1019C000FFE79DF86A114FF0402000EB01302990AD
:1019D00008E09DF86A110020C4F2020000EB01301B
:1019E0002990FFE72A982999C1F810053FE29DF850
:1019F0006A01032808DCFFE79DF86A114FF04020D8
:101A000000EB0130289008E09DF86A110020C4F234
:101A1000020000EB01302890FFE72898D0F81C0561
:101A20009DF8692101219140084327909DF86A01A2
:101A3000032808DCFFE79DF86A114FF0402000EB17
:101A40000130269008E09DF86A110020C4F20200DF
:101A500000EB01302690FFE727982699C1F81C0576
:101A60009DF86A01032808DCFFE79DF86A114FF032
:101A7000402000EB0130259008E09DF86A1100201D
:101A8000C4F2020000EB01302590FFE72598D0F862
:101A900028059DF8692101219140884324909DF8F3
:101AA0006A01032808DCFFE79DF86A114FF0402027
:101AB00000EB0130239008E09DF86A110020C4F289
:101AC000020000EB01302390FFE724982399C1F82E
:101AD00028059DF86A01032808DCFFE79DF86A11D4
:101AE0004FF0402000EB0130229008E09DF86A1191
:101AF0000020C4F2020000EB01302290FFE72298A0
:101B0000D0F820049DF8692101219140884321905B
:101B10009DF86A01032808DCFFE79DF86A114FF081
:101B2000402000EB0130209008E09DF86A11002071
:101B3000C4F2020000EB01302090FFE721982099C9
:101B4000C1F820049DF86A01032808DCFFE79DF82E
:101B50006A114FF0402000EB01301F9008E09DF823
:101B60006A110020C4F2020000EB01301F90FFE771
:101B70001F98D0F800049DF8692101219140884305
:101B80001E909DF86A01032808DCFFE79DF86A11A2
:101B90004FF0402000EB01301D9008E09DF86A11E5
:101BA0000020C4F2020000EB01301D90FFE71E98F8
:101BB0001D99C1F800049DF86A01032808DCFFE7BD
:101BC0009DF86A114FF0402000EB01301C9008E0B6
:101BD0009DF86A110020C4F2020000EB01301C9055
:101BE000FFE71C98D0F814059DF869210121914068
:101BF00008431B909DF86A01032808DCFFE79DF865
:101C00006A114FF0402000EB01301A9008E09DF877
:101C10006A110020C4F2020000EB01301A90FFE7C5
:101C20001B981A99C1F8140521E19DF86A0103284F
:101C300008DCFFE79DF86A114FF0402000EB01300F
:101C4000199008E09DF86A110020C4F2020000EB30
:101C500001301990FFE71998D0F81C059DF869210B
:101C600001219140084318909DF86A01032808DC7F
:101C7000FFE79DF86A114FF0402000EB013017900C
:101C800008E09DF86A110020C4F2020000EB013068
:101C90001790FFE718981799C1F81C059DF86A017D
:101CA000032808DCFFE79DF86A114FF0402000EBA5
:101CB0000130169008E09DF86A110020C4F202007D
:101CC00000EB01301690FFE71698D0F828059DF834
:101CD000692101219140884315909DF86A010328EC
:101CE00008DCFFE79DF86A114FF0402000EB01305F
:101CF000149008E09DF86A110020C4F2020000EB85
:101D000001301490FFE715981499C1F828059DF843
:101D10006A01032808DCFFE79DF86A114FF04020B4
:101D200000EB0130139008E09DF86A110020C4F226
:101D3000020000EB01301390FFE71398D0F8200465
:101D40009DF8692101219140884312909DF86A0114
:101D5000032808DCFFE79DF86A114FF0402000EBF4
:101D60000130119008E09DF86A110020C4F20200D1
:101D700000EB01301190FFE712981199C1F820048F
:101D80009DF86A01032808DCFFE79DF86A114FF00F
:101D9000402000EB0130109008E09DF86A1100200F
:101DA000C4F2020000EB01301090FFE71098D0F869
:101DB00000049DF869210121914008430F909DF88E
:101DC0006A01032808DCFFE79DF86A114FF0402004
:101DD00000EB01300E9008E09DF86A110020C4F27B
:101DE000020000EB01300E90FFE70F980E99C1F84A
:101DF00000049DF86A01032808DCFFE79DF86A11DA
:101E00004FF0402000EB01300D9008E09DF86A1182
:101E10000020C4F2020000EB01300D90FFE70D98A6
:101E2000D0F80C059DF869210121914008430C90E0
:101E30009DF86A01032808DCFFE79DF86A114FF05E
:101E4000402000EB01300B9008E09DF86A11002063
:101E5000C4F2020000EB01300B90FFE70C980B99E5
:101E6000C1F80C0503E003208DF86B01FFE79DF836
:101E70006B01002840F0E580FFE79DF86A01032828
:101E800008DCFFE79DF86A114FF0402000EB0130BD
:101E90000A9008E09DF86A110020C4F2020000EBED
:101EA00001300A90FFE70A98D0F800049DF8691104
:101EB00001228A401040C840002800F0C280FFE79D
:101EC0005B98C0780146099140B1FFE70998012865
:101ED0003ED0FFE70998022874D0ADE09DF86A0172
:101EE000032808DCFFE79DF86A114FF0402000EB63
:101EF0000130089008E09DF86A110020C4F2020049
:101F000000EB01300890FFE70898D0F800059DF835
:101F1000692101219140084307909DF86A01032837
:101F200008DCFFE79DF86A114FF0402000EB01301C
:101F3000069008E09DF86A110020C4F2020000EB50
:101F400001300690FFE707980699C1F8000577E091
:101F50009DF86A01032808DCFFE79DF86A114FF03D
:101F6000402000EB0130059008E09DF86A11002048
:101F7000C4F2020000EB01300590FFE70598D0F8AD
:101F800004059DF8692101219140084304909DF8C2
:101F90006A01032808DCFFE79DF86A114FF0402032
:101FA00000EB0130039008E09DF86A110020C4F2B4
:101FB000020000EB01300390FFE704980399C1F899
:101FC00004053DE09DF86A01032808DCFFE79DF861
:101FD0006A114FF0402000EB0130029008E09DF8BC
:101FE0006A110020C4F2020000EB01300290FFE70A
:101FF0000298D0F808059DF8692101219140084315
:1020000001909DF86A01032808DCFFE79DF86A113A
:102010004FF0402000EB0130009008E09DF86A117D
:102020000020C4F2020000EB01300090FFE70198AD
:102030000099C1F8080503E005208DF86B01FFE762
:1020400000E0FFE703E001208DF86B01FFE700E00F
:10205000FFE79DF86B015CB080BD000080B58AB0E1
:102060008DF827008DF826108DF825209DF8270083
:102070009DF8261000F05CF98DF824009DF82400EE
:10208000002840F0AC80FFE79DF82700032808DC1B
:10209000FFE79DF827104FF0402000EB013008903B
:1020A00008E09DF827100020C4F2020000EB013088
:1020B0000890FFE70898D0F800049DF82610012248
:1020C0008A401040C840002800F08480FFE79DF857
:1020D00025000146079120B1FFE7079801283AD073
:1020E00073E09DF82700032808DCFFE79DF8271020
:1020F0004FF0402000EB0130069008E09DF82710DB
:102100000020C4F2020000EB01300690FFE70698C1
:10211000D0F8FC039DF826200121914088430590CA
:102120009DF82700032808DCFFE79DF827104FF0F3
:10213000402000EB0130049008E09DF827100020BB
:10214000C4F2020000EB01300490FFE70598049907
:10215000C1F8FC033DE09DF82700032808DCFFE7F9
:102160009DF827104FF0402000EB0130039008E06D
:102170009DF827100020C4F2020000EB013003900C
:10218000FFE70398D0F8FC039DF826200121914039
:10219000084302909DF82700032808DCFFE79DF81C
:1021A00027104FF0402000EB0130019008E09DF82F
:1021B00027100020C4F2020000EB01300190FFE77D
:1021C00002980199C1F8FC0303E005208DF8240072
:1021D000FFE703E005208DF82400FFE700E0FFE7BC
:1021E0009DF824000AB080BD80B584B08DF80F0042
:1021F0008DF80E1000208DF80D009DF80F000528B9
:1022000005DCFFE79DF80E00082804DBFFE701204E
:102210008DF80D001AE09DF80F008DF808009DF86C
:102220000E008DF8090001208DF80A0000208DF8BD
:102230000B0002A8FFF70AF88DF807009DF80700C9
:10224000002818BF01208DF80D00FFE79DF80D0054
:1022500004B080BD80B582B08DF807008DF80610FF
:1022600000208DF805009DF80700052805DCFFE734
:102270009DF80600082804DBFFE701208DF8050023
:1022800010E09DF807009DF806100022FFF7E6FE1B
:102290008DF804009DF80400002818BF01208DF877
:1022A0000500FFE79DF8050002B080BD80B582B053
:1022B0008DF807008DF8061000208DF805009DF8B8
:1022C0000700052805DCFFE79DF80600082804DB69
:1022D000FFE701208DF8050010E09DF807009DF84C
:1022E00006100122FFF7BAFE8DF804009DF80400E5
:1022F000002818BF01208DF80500FFE79DF80500B4
:1023000002B080BD80B582B0002001908DF803003E
:10231000FEF784FD8DF803009DF8030018B9FFE770
:10232000FEF7E6FD01E0FFE7FEE7002002B080BD1A
:1023300081B08DF802008DF801109DF8020006288A
:1023400004DBFFE701208DF8030016E09DF8010093
:1023500007280ADCFFE79DF80200052809D1FFE7FE
:102360009DF80100052804DBFFE702208DF803003B
:1023700003E000208DF80300FFE79DF8030001B0A3
:102380007047000084B0039000208DF80B0040F2ED
:102390003810C2F20000007838B1FFE740F22C108C
:1023A000C2F20000006820B9FFE701208DF80B00A1
:1023B00068E04EF21001CEF20001086840F0020021
:1023C000086000200190009040F22C10C2F2000042
:1023D00000680078B0B9FFE741F26F20C3F68310C0
:1023E00001909DED030AB8EE400A9DED011A80EEC2
:1023F000010AB7EE001A30EE010ABCEEC00A8DEDFC
:10240000000A1FE040F22C10C2F2000000680078C1
:10241000012816D1FFE741F26F20C3F603100190A7
:102420009DED030AB8EE400A9DED011A80EE010A07
:10243000B7EE001A30EE010ABCEEC00A8DED000ABC
:10244000FFE7FFE79DF8030018B9FFE7009820B900
:10245000FFE702208DF80B00FFE700984EF2140111
:10246000CEF2000108604EF21801CEF20001002009
:1024700008604EF21001CEF20001086840F0010041
:102480000860FFE79DF80B0004B0704782B0019030
:1024900000208DF80300019820B9FFE702208DF895
:1024A000030036E001980078022804DBFFE70120F2
:1024B0008DF803002CE040F23810C2F200000078E2
:1024C000012801D1FFE722E00198007848B1FFE739
:1024D0004EF21001CEF20001086840F004000860DE
:1024E00008E04EF21001CEF20001086820F004006E
:1024F0000860FFE7019840F22C11C2F20001086069
:1025000040F23811C2F2000101200870FFE7FFE736
:10251000FFE79DF8030002B07047000084B003900D
:1025200000208DF80B0040F23810C2F20000007855
:1025300038B1FFE740F22C10C2F20000006820B969
:10254000FFE701208DF80B007EE04EF21001CEF285
:102550000001086820F0020008600020019000904F
:1025600040F22C10C2F2000000680078B0B9FFE71A
:1025700041F26F20C3F6831001909DED030AB8EE7F
:10258000400A9DED011A80EE010AB7EE001A30EE06
:10259000010ABCEEC00A8DED000A1FE040F22C10CB
:1025A000C2F2000000680078012816D1FFE741F26E
:1025B0006F20C3F6031001909DED030AB8EE400AA8
:1025C0009DED011A80EE010AB7EE001A30EE010A05
:1025D000BCEEC00A8DED000AFFE7FFE79DF803009F
:1025E00018B9FFE7009820B9FFE702208DF80B002B
:1025F000FFE700984EF21401CEF2000108604EF29F
:102600001801CEF20001002008604EF21001CEF257
:102610000001086840F001000860FFE74EF210007A
:10262000CEF20000006800F480310020B0EB114FC2
:1026300001D1FFE7F2E74EF21001CEF20001086887
:1026400020F001000860FFE79DF80B0004B0704720
:1026500082B0019000208DF8030040F23810C2F2E1
:102660000000007838B1FFE740F22C10C2F2000001
:10267000006820B9FFE701208DF803000FE0019802
:1026800020B9FFE702208DF8030007E0019840F22F
:102690002C11C2F2000109684860FFE7FFE79DF8CE
:1026A000030002B07047F1EE100A4FF6FF71C0F25E
:1026B000C03120EA010040F04070E1EE100A70479E
:1026C000E02600000000002004000000A802000036
:1026D000E42600000800002038030000C4020000C7
:0426E00005040000ED
:040000050000030DE7
:00000001FF
